:020000040800F2
:1000000000040020E1010008710F0008750F0008CE
:10001000C90F0008750F00089D0F0008E3010008D4
:10002000E3010008E3010008E3010008F9270008E4
:10003000E3010008E3010008E3010008E301000810
:10004000E3010008E3010008E3010008E301000800
:10005000E3010008E30100085D3900088939000860
:10006000B5390008E13900080D3A0008E30100083D
:10007000E3010008E3010008E3010008E3010008D0
:10008000E3010008E3010008E3010008E3010008C0
:10009000E3010008E3010008E3010008393A000821
:1000A000E3010008E3010008E3010008E3010008A0
:1000B000E3010008E3010008E3010008E301000890
:1000C000E3010008E3010008E3010008E301000880
:1000D000E3010008E30100084D1100086111000868
:1000E000A13A0008E3010008E3010008E301000869
:1000F000E3010008E3010008E3010008E301000850
:10010000E3010008E30100086D370008E30100087F
:10011000E3010008E3010008E3010008E30100082F
:10012000E3010008E3010008E3010008E30100081F
:10013000E3010008E3010008E3010008E30100080F
:10014000E3010008E3010008E3010008E52E0008D0
:10015000E3010008E3010008E3010008E3010008EF
:10016000E3010008E3010008E3010008E3010008DF
:10017000E3010008E3010008E3010008E3010008CF
:10018000E3010008E301000875110008E30100081D
:10019000E3010008E3010008E3010008E3010008AF
:1001A000E3010008E3010008E3010008E30100089F
:1001B000E3010008E3010008E3010008E30100088F
:1001C000E3010008E3010008E3010008E30100087F
:1001D000E3010008E3010008E3010008E30100086F
:1001E00002E000F000F8FEE772B6394880F30888B4
:1001F000384880F3098838484EF60851CEF200019D
:10020000086040F20000CCF200004EF63471CEF2ED
:1002100000010860BFF34F8FBFF36F8F40F2000003
:10022000C0F2F0004EF68851CEF200010860BFF334
:100230004F8FBFF36F8F4FF00000E1EE100A4EF6C4
:100240003C71CEF200010860062080F31488BFF3F1
:100250006F8F02F00FFB03F01FFA4FF055301F496C
:100260001B4A91423CBF41F8040BFAE71C49194A6A
:1002700091423CBF41F8040BFAE71A491A4A1B4B5A
:100280009A423EBF51F8040B42F8040BF8E70020F5
:100290001749184A91423CBF41F8040BFAE702F0B3
:1002A000EDFA03F055FA144C144DAC4203DA54F84D
:1002B000041B8847F9E700F03FF8114C114DAC42A0
:1002C00003DA54F8041B8847F9E702F0D5BA0000B6
:1002D000000400200024002000000008000000208E
:1002E00000040020383F00080024002028240020BB
:1002F0002824002090410020E0010008E0010008CF
:10030000E0010008E00100082DE9F04F2DED108A12
:10031000C1F80CD0C3689D46BDEC108ABDE8F08FD3
:10032000002383F311882846A047002001F0EAFE4D
:1003300001F0AEFE00DFFEE770B5204C092300257A
:1003400023706FF03F061F236570A570E57025715F
:100350006571A571E57125726672A372E57200F090
:1003600031FD20B10F2325726672A372E57202F08F
:1003700019FA044602F03AFA0546D8B9104B9C42E5
:100380001AD001339C4218BF054641F2883404BF9D
:1003900001250024002002F00FFA0DB100F0B4F89E
:1003A00000F092FD00F04CFC204600F007F900F050
:1003B000ABF8F9E70024EDE70446EBE7282400203A
:1003C000010007B008B500F0A5FBA0F120035842DA
:1003D000584108BD07B5054B02211B88ADF8043014
:1003E00001A800F017FC03B05DF804FB883B00088F
:1003F000064991F8243033B100230822086A81F8B5
:10040000243000F03FBC0120704700BF482400208A
:100410002DE9F84F224C164694F8242007468846CA
:1004200082BBDFF87C90002E38D094F824A0BAF17B
:10043000000F05D12022FF214846276200F032FD3F
:10044000CAF10805B54228BF35465FFA85FBAD0005
:1004500041462A4604EB8A0000F0FCFC94F8243064
:10046000A6EB0B069B445FFA8BFBBBF1080F2F44F6
:10047000A844F6B284F824B0D5D1FFF7B9FF00281C
:10048000D1D108E0236A03EB82038342C9D0FFF78E
:10049000AFFF0028C5D10020BDE8F88F0120FBE7A1
:1004A0004824002010B5202383F311881248C36824
:1004B0000BB101F0ADFE0023104A0F484FF47A71E2
:1004C00001F06AFE002383F311880D4C236813B1F9
:1004D0002368013B2360636813B16368013B636079
:1004E000084B1B7833B9636823B9022000F0A8FCDD
:1004F0003223636010BD00BF34240020A50400082F
:10050000782900207024002010B5244B244A196853
:10051000013142D004339342F9D1224C224B22685C
:100520009A423AD9214B9B6803F1006303F580435B
:100530009A4232D2002000F09DFB1D4B0220187021
:1005400000F074FC1B4B1A6C00221A64196E1A66B8
:10055000196E596C5A64596E5A665A6E5A6942F04D
:1005600080025A615A6922F080025A615A691A69F6
:1005700042F000521A611A6922F000521A611B6996
:1005800072B60D4A054B13601B682268202181F367
:1005900011889D4683F30888104710BD004000086D
:1005A0002040000804400008FF3F000828240020E5
:1005B000702400200038024008ED00E02DE9F04FE3
:1005C00097B0B24C00902022FF210EA8A66800F040
:1005D00069FCAF4A1378A246A3B9AE480121C360B3
:1005E0001170202383F31188C3680BB101F010FE52
:1005F0000023A94AA7484FF47A7101F0CDFD0023EA
:1006000083F31188009BA54A03B11360A449009F9E
:1006100000230B70536099461D461C469846DFF830
:100620007CB2012000F002FC27B1DBF80030002B87
:1006300000F03882002000F06DFA0290029B002B3F
:10064000F2DB012000F0E8FB029B213B122BE8D8F3
:1006500001A252F823F000BFA5060008CD0600084D
:100660003D070008230600082306000823060008AB
:10067000CF070008110A0008B9080008710900082E
:10068000A3090008D109000823060008E9090008A9
:1006900023060008630A0008BD07000823060008B7
:1006A000AB0A00080220FFF78DFE002840F02582EB
:1006B000009BB9F1000F08BF1F467A4B1B88ADF8AD
:1006C0002430022109A800F0A5FAA8E74FF47A70B7
:1006D00000F020FA031E0193EADB0220FFF772FE0E
:1006E00083460028E4D0019B581E042800F20782AC
:1006F000DFE800F0030E1114170016A8052340F8D8
:10070000343D042100F086FA5D464FF0000855E0C4
:1007100004215E48F6E704216348F3E704216348B7
:10072000F0E71C25284600F0A7FA043509900421BB
:1007300009A800F06FFA2C2DF4D1E5E7002CB7D012
:10074000002DB5D00220FFF73DFE0446002800F042
:10075000D9810120524D00F08DFA0220287000F05E
:1007600065FB4FF000095FFA89FB584600F092FAEA
:10077000074658B1584600F09DFA09F101090028D2
:10078000F1D12546A1460027494B97E701230220D6
:100790002B7000F041FB3E46DAF80830B34206D930
:1007A000304600F069FA0130EBD10436F4E73B4BF8
:1007B00000262E705E60A1462546374600F07AFB83
:1007C00014B1002D18BF0027FFF704FE27E7002C07
:1007D0003FF46EAF002D3FF46BAF314B0220187029
:1007E00000F024FB322000F095F9B0F1000BC0F2CC
:1007F00089811BF0030440F08581DAF808200BEBB7
:100800000603934200F27E81BBF5807F00F27A817D
:10081000284B0193A3450DDD4FF47A7000F07AF96F
:100820000290029A002AC0F26D81019B029AE25462
:100830000134EEE7C820FFF7C5FD0446002800F0AC
:1008400061811F2E11D8C6F120055D4528BF5D4688
:100850000EAB26F003002A461649184400F0FAFAB7
:100860002A46FF21134800F01DFB4FEAAB0B5FFA4D
:100870008BF210493046FFF7CBFD0546002800F00B
:10088000438106EB8B06044698E700BF282400202E
:100890007425002034240020A504000878290020B5
:1008A000702400208A3B00082C24002030240020E3
:1008B0008C3B0008742400200220FFF783FD0028F1
:1008C0003FF4F6AEFFF794FD00283FF4F1AE4FF091
:1008D000000B5946DAF808305B4542D9BBF11F0FCF
:1008E00038D80E9B013335D02BF0030316AA1344DE
:1008F00053F8203C099385484368CBB91A464FF01A
:10090000080C02F0010E5208BEF1000F07D082F071
:100910006D4282F4380282F4034282F02002BCF17C
:10092000010CEED140F823200133B3F5807FE5D1EF
:10093000764800220DF1240C12F80C304B40DBB24B
:10094000013250F82330042A83EA1121F4D10BF14B
:10095000040BBFE75846019100F08EF90199099008
:10096000C9E716A840F84C1D042100F053F925E70B
:1009700016A8002340F8343D642100F00DF900284A
:100980007FF496AE0220FFF71DFD00283FF490AEE5
:10099000099800F0A1F916AB43F8480D0421184658
:1009A000E3E716A8002340F8343D642100F0F4F892
:1009B00000287FF47DAE0220FFF704FD00283FF4FD
:1009C00077AE099800F096F916AB43F8440DE5E7C9
:1009D0000220FFF7F7FC00283FF46AAE00F090F920
:1009E00016AB43F8400DD9E70220FFF7EBFC0028D7
:1009F0003FF45EAE09A9142000F088F9834616A8DA
:100A0000042140F83CBD00F005F9594609A8ACE7BF
:100A1000322000F07FF8B0F1000BFFF649AE1BF07A
:100A2000030F7FF445AEDAF808200BEB080393427E
:100A30003FF63EAE0220FFF7C5FC00283FF438AE7B
:100A40002BF0030BC344D8453FF4B8AE404600F04A
:100A500013F90421089008A800F0DCF808F1040854
:100A6000F1E74FF47A70FFF7ADFC00283FF420AEB9
:100A7000FFF7BEFC00283FF487AE0E9B01330CD07D
:100A800008220EA90020FFF7C3FC00283FF47CAE2B
:100A90002022FF210EA800F005FAFFF79BFC1C485E
:100AA00001F036FB17B0BDE8F08F002C3FF400AE2C
:100AB000002D3FF4FDAD16A8002340F8343D64211D
:100AC00000F06AF8834600287FF4F2AD0220FFF7B9
:100AD00079FC00283FF4ECAD0190FFF77BFC41F27C
:100AE000883001F015FB099800F022FA00F0E2F9D5
:100AF000019B5F461D461C4691E504465EE64FF0AD
:100B00000008D5E52C46D3E525463DE678250020AE
:100B1000A08601002DE9F7431B4E96F90020002323
:100B20004FF47A74511C8DF80730A0FB04890BD167
:100B30001648036801221F6A0DF107014346B847B2
:100B4000012803D1002011E0002AF1D096F90030ED
:100B50005A1C01D0012B10D10D48036801221D6AD7
:100B60000DF107014346A847012806D1094B18702B
:100B70009DF8070003B0BDE8F0834FF4FA7001F070
:100B8000C7FA4FF0FF30F5E700240020943700202B
:100B90001C2A0020982900202DE9F047194E96F9CB
:100BA00000204FF47A74A1FB049A511C07460BD124
:100BB000154803680422D3F8208039464B46C047C5
:100BC000042803D1002311E0002AF1D096F9003067
:100BD0005A1C01D0012B0ED10C48036804221D6A57
:100BE00039464B46A847042805D10123084A00206E
:100BF0001370BDE8F0874FF4FA7001F089FA4FF0F6
:100C0000FF30F6E700240020943700201C2A002043
:100C10009829002030B4074B1A78074B53F822402C
:100C20002368DD69054B0A46AC460146204630BCC8
:100C3000604700BF98290020E03B0008A086010023
:100C400070B501F0ABFC094C094E207000253068EE
:100C50002378834208D901F09BFC336805440133B3
:100C6000B5F5804F3360F2D370BD00BF99290020E5
:100C70008029002001F048BD00F1006000F58040AF
:100C80000068704700F10060920000F5804001F0BC
:100C9000D3BC0000054B1A68054B1B789B1A834296
:100CA00002D9104401F074BC002070478029002054
:100CB0009929002038B5074D04462868204401F0E2
:100CC0006FFC28B928682044BDE8384001F080BC9A
:100CD00038BD00BF8029002010F0030308D1B0F513
:100CE000007F05D800F10050A0F50840006870476B
:100CF00000207047014BC058704700BF107AFF1F9B
:100D0000014B1868704700BF002004E0F0B52A4B83
:100D10001A68C2F30B03120C63B140F21344A342EE
:100D200031D040F21944A3422FD040F22144A342D3
:100D30002DD10323214C0C2505FB03435E6893F959
:100D4000083042F20104A24224D0B2F5805F23D0E1
:100D500041F20104A24221D041F20304A2421FD079
:100D600041F20704A24208BF3123451E0D44013E53
:100D70000A46AA421ED216F9017F541C97B104F804
:100D8000017C2246F5E70123D4E70223D2E73F2383
:100D90000B4ED6E73323E3E74123E1E75A23E4E7A9
:100DA0005923E2E72C20A542107001D9941C5370FE
:100DB000601AF0BD1446FBE7002004E0B03B0008D9
:100DC000903B0008124B5A8842F201018A4293B2CA
:100DD00014D0B2F5805F13D041F20102934211D0DA
:100DE00041F2030293420FD041F2070293420DD128
:100DF0000423084A02EB8303D87870470023F8E7FE
:100E00000123F6E70223F4E70323F2E7002070470B
:100E1000002004E09C3B0008022802BF024B4FF474
:100E200080529A61704700BF00100240022802BF42
:100E3000024B4FF080529A61704700BF0010024091
:100E4000022801BF024A536983F4805353617047FB
:100E50000010024010B50023934203D0CC5CC45470
:100E60000133F9E710BD000030B5441E14F9010F3D
:100E70000B4640B193F90050854201F1010102D1C6
:100E800012B1013AF2E71AB193F90020801A30BD8D
:100E90001046FCE702460346981A13F9011B002985
:100EA000FAD1704702440346934202D003F8011B73
:100EB000FAE77047024B1A78024B1A70704700BF6E
:100EC000982900200024002038B5134C134D2046EB
:100ED00000F07AFC2946204600F0A2FC2D6810485C
:100EE0006A6D936B23F40023936301F011F90D49AC
:100EF000284600F099FD6A6D0B48936B0B4943F44B
:100F000000239363A0424FF4E1330B6003D0BDE8AC
:100F1000384000F0B7BB38BD94370020C03C000813
:100F200040420F00E83C00081C2A002084290020D1
:100F300038B50B4B1A780B4B53F822400A4B9C42A6
:100F400005460CD0094B002118461422FFF7AAFFD2
:100F5000056001462046BDE8384000F093BB38BD2F
:100F600098290020E03B00089437002084290020C5
:100F7000FEE7000000B59BB0EFF3098168226846E8
:100F8000FFF768FFEFF30583034B9A6B9A6A9A6A3F
:100F90009A6A9A6A9B6AFEE700ED00E000B59BB092
:100FA000EFF3098168226846FFF754FFEFF30583EA
:100FB000044B9A6B9A6A9A6A9A6A9A6A9A6A9B6AC4
:100FC000FEE700BF00ED00E000B59BB0EFF3098144
:100FD00068226846FFF73EFFEFF30583034B5A6B29
:100FE0009A6A9A6A9A6A9A6A9B6AFEE700ED00E03A
:100FF000002304491A465A50C8180833802B42600F
:10100000F9D170479C2900200268436811430160B0
:1010100003B1184770470000024AD36843F0C00389
:10102000D360704700440040024AD36843F0C003D5
:10103000D360704700480040024AD36843F0C003C1
:10104000D3607047007800402DE9F041D0F85C642F
:10105000F7683368DA0505469CB20DD5202383F383
:1010600011884FF400710430FFF7CEFF6FF48073E6
:101070003360002383F31188202383F3118805F163
:10108000040814F02F033AD183F31188380615D5DC
:10109000210613D5202383F3118805F1380000F0D1
:1010A0004FFA00284DDA0821281DFFF7ADFF4FF653
:1010B0007F733B40F360002383F311887A0616D5D3
:1010C000630614D5202383F31188D5E913239A42AC
:1010D0000AD12B6C43B127F040073F041021281D93
:1010E0003F0CFFF791FFF760002383F31188D5F8D9
:1010F0006424D3683BB31069BDE8F0411847230767
:1011000013D014F0080F0CBF00218021E00748BF66
:1011100041F02001A20748BF41F04001630748BFEA
:1011200041F480714046FFF76FFFA406736805D550
:1011300095F860142846194000F0B2FA3468A4B259
:101140009FE77060B7E7BDE8F081000008B503488D
:10115000FFF77AFFBDE8084001F05EBB1C2A0020C3
:1011600008B50348FFF770FFBDE8084001F054BB25
:10117000842E002008B50348FFF766FFBDE808404D
:1011800001F04ABBEC32002010B50E4C0E4A20464E
:10119000002100F055FA0D4BC4F85C340C4C0D4A9C
:1011A0002046002100F04CFA0B4BC4F85C340B4C89
:1011B0000B4A0021204600F043FA0A4BC4F85C3485
:1011C00010BD00BF1C2A0020191000080044004078
:1011D000842E00202910000800480040EC32002036
:1011E000391000080078004038B5394D037C0029DB
:1011F00018BF0D46012B0446C0F8645410D1354B7E
:10120000984242D1344B1A6C42F400321A641A6E7E
:1012100042F400321A661B6E0B21262000F068F89B
:10122000D4F85C242D492B688A424FEA530003D03E
:1012300001F580618A4248D129490144B1FBF3F3A9
:10124000A988080442BF23F0070003F0070343EA1C
:1012500040039360EB8843F0400313612B8943F014
:101260000103536141F4045343F02C03D36001F4B0
:10127000A05100231360B1F5806F136853680CBF51
:101280007F23FF2384F8603438BD164B98420CD17D
:10129000114B1A6C42F480221A641A6E42F48022B6
:1012A0001A661B6E0B212720B8E70F4B9842B7D167
:1012B000094B1A6C42F080421A641A6E42F0804266
:1012C0001A661B6E0B215220A8E70849B5E700BF3C
:1012D000083C00081C2A0020003802400010014091
:1012E00000BD0105842E0020EC32002080DE80024B
:1012F00000F1604300F01F02400903F5614309015A
:101300008000C9B200F1604083F8001300F561402D
:1013100001239340C0F8803103607047F8B515464B
:1013200082680669AA420B46816938BF8568761AC9
:10133000B542044607D218462A46FFF78BFDA3693B
:101340002B44A3610DE011D932461846FFF782FD08
:10135000AF1B3A46E1683044FFF77CFDE2683A444F
:10136000A261A3685B1BA3602846F8BD18462A4605
:10137000FFF770FDE368E4E7836893422DE9F041ED
:101380001546044638BF8568D0E90460361AB54270
:101390000F4606D22A46FFF75DFD63692B44636161
:1013A0000DE012D93246A5EB0608FFF753FD424681
:1013B000B919E068FFF74EFDE26842446261A36834
:1013C0005B1BA3602846BDE8F0812A46FFF742FD7B
:1013D000E368E4E710B50A440024C361029B84601B
:1013E000C0E90000C160C0E905110261036210BDDF
:1013F00008B5D0E90532934201D1826882B982688A
:10140000013282605A1C42611970D0E904329A425A
:1014100024BFC3684361002100F096FE002008BD90
:101420004FF0FF30FBE7000070B5202304460E4666
:1014300083F31188A568A5B1A368A269013BA360E5
:10144000531CA36115782269934224BFE368A3610A
:10145000E3690BB120469847002383F3118828469F
:1014600007E03146204600F05FFE0028E2DA85F30F
:10147000118870BD2DE9F74F05460F4690469A46F4
:10148000D0F81C90202686F311884FF0000B1446EC
:1014900064B1224639462846FFF740FF034668B943
:1014A0005146284600F040FE0028F1D0002383F387
:1014B0001188A8EB040003B0BDE8F08FB9F1000F6C
:1014C00003D001902846C847019B8BF31188E41A8A
:1014D0001F4486F31188DBE7C160C0E90511C361D1
:1014E0001144009B8260C0E9000001610362704703
:1014F000F8B504460E461746202383F31188A568E5
:10150000A5B1A368013BA36063695A1C62611E70A8
:10151000D4E904329A4224BFE3686361E3690BB102
:1015200020469847002080F3118807E0394620467E
:1015300000F0FAFD0028E2DA85F31188F8BD00001A
:10154000D0E905239A4210B501D182687AB9826840
:10155000013282605A1C82611C7803699A4224BF5E
:10156000C3688361002100F0EFFD204610BD4FF0FD
:10157000FF30FBE72DE9F74F05460F4690469A46A8
:10158000D0F81C90202686F311884FF0000B1446EB
:1015900064B1224639462846FFF7EEFE034668B995
:1015A0005146284600F0C0FD0028F1D0002383F307
:1015B0001188A8EB040003B0BDE8F08FB9F1000F6B
:1015C00003D001902846C847019B8BF31188E41A89
:1015D0001F4486F31188DBE702684368114301600A
:1015E00003B11847704700001430FFF743BF0000F5
:1015F0004FF0FF331430FFF73DBF00003830FFF7E6
:10160000B9BF00004FF0FF333830FFF7B3BF000021
:101610001430FFF709BF00004FF0FF311430FFF71F
:1016200003BF00003830FFF763BF00004FF0FF3208
:101630003830FFF75DBF000000207047FFF7A4BD02
:1016400037B50F4B036000234360C0E90233012329
:1016500004460374154600900B464FF4007200F1E7
:101660005C011430FFF7B6FE00942B464FF4007275
:1016700004F5177104F13800FFF72EFF03B030BDF9
:101680001C3C000810B52023044683F31188FFF7A3
:10169000ABFD02232374002383F3118810BD0000E7
:1016A00038B5C36904460D461BB904210844FFF749
:1016B00093FF294604F11400FFF79AFE002806DA8A
:1016C000201D4FF48061BDE83840FFF785BF38BD6D
:1016D000026843681143016003B118477047000076
:1016E00013B5446BD4F894341A681178042915D1D1
:1016F000217C022912D11979128901238B401342CE
:101700000CD101A904F14C0001F03CFED4F8944442
:10171000019B21790246206800F0D2F902B010BD89
:10172000143001F0BFBD00004FF0FF33143001F062
:10173000B9BD00004C3001F091BE00004FF0FF3306
:101740004C3001F08BBE0000143001F08DBD000064
:101750004FF0FF31143001F087BD00004C3001F034
:101760005DBE00004FF0FF324C3001F057BE00006C
:10177000D0F8942438B5136819780429054601D0A7
:10178000012038BD017C0229FAD112795C8901203F
:1017900090400440F4D105F1140001F01FFD024611
:1017A0000028EDD0D5F894544FF4807328686979F7
:1017B00000F074F92046E4E7406BFFF7D9BF000062
:1017C00000207047704700007FB5124B0360002374
:1017D0004360C0E90233012502260F4B057404461D
:1017E0000290019300F18402294600964FF4807321
:1017F000143001F0CFFC094B0294CDE9006304F5ED
:1018000023724FF48073294604F14C0001F096FDD9
:1018100004B070BD443C0008B9170008E116000888
:101820000B68202282F311880A7903EB820290610F
:101830004A79093243F822008A7912B103EB820314
:10184000986102230374C0F89414002383F3118871
:101850007047000038B5037F044613B190F8543048
:10186000ABB9201D01250221FFF732FF04F114005E
:1018700025776FF0010100F073FC84F8545004F1F7
:101880004C006FF00101BDE8384000F069BC38BD84
:1018900010B5012104460430FFF71AFF0023237717
:1018A00084F8543010BD000038B5044600251430CB
:1018B00001F088FC04F14C00257701F057FD201D54
:1018C00084F854500121FFF703FF2046BDE838405B
:1018D000FFF74EBF90F8443003F06003202B07D190
:1018E00090F84530202B03D3212B03D9222B09D08C
:1018F00000207047054B83630723C3630023036401
:10190000012070470023C0E90E33F8E701240020CE
:10191000D0F8943437B51A681178042904461AD1DE
:10192000017C022917D11979128901238B401342B6
:1019300011D100F14C05284601F0D8FD58B101A99C
:10194000284601F01FFDD4F89444019B21790246FA
:10195000206800F0B5F803B030BD000000EB810353
:10196000F7B59C6905460E46F4B1202383F3118830
:1019700005EB8607201D0821FFF7AAFEFB685B69BF
:101980001B684C3413B1204601F00AFD01A9204622
:1019900001F0F8FC024648B1019B3146284600F0B0
:1019A0008FF8002383F3118803B0F0BDFB685A69F8
:1019B0001268002AF5D01B8A013B1340F1D105F1D2
:1019C0004402EAE7093138B550F82140DCB1202360
:1019D00083F31188D4F894241368527903EB8203BB
:1019E000DB689B695D6845B104216018FFF770FEF4
:1019F000294604F1140001F0FBFB2046FFF7B8FE76
:101A0000002383F3118838BD7047000000F0BABF8F
:101A1000012303700023C36183620362C3624362D4
:101A20000363C0E90133704738B50446202383F3CC
:101A3000118800254160C0E90355C0E9055500F053
:101A4000B1FF0223237085F3118838BD70B500EB18
:101A5000810305465069DA600E46144618B110221B
:101A60000021FFF71FFAA06918B110220021FFF72B
:101A700019FA31462846BDE8704001F05DB8000013
:101A8000028902F001020281428902F001024281D0
:101A90000022C0E90422826101F0E4B8F0B400EB56
:101AA00081044789E4680125A4698D403D4345814F
:101AB00023600023A2606360F0BC01F0FFB8000067
:101AC000F0B400EB81040789E468012564698D4066
:101AD0003D43058123600023A2606360F0BC01F0F8
:101AE00079B9000070B50223002504460370C5646F
:101AF000C0E90255C0E90455856180F8345000F012
:101B0000B7FF63681B6823B129462046BDE87040D3
:101B1000184770BD436802781B6880F85020052282
:101B200002700BB10421184770470000436890F819
:101B300050201B6802700BB1052118477047000048
:101B400090F8343070B5044613B1002380F8343077
:101B500004F14402204601F0A7F863689B6863BB68
:101B600094F8443013F0600515D194F8452003F043
:101B70007F0343EA022340F20232934200F00881DD
:101B80005BD8022B00F0DB803FD8002B00F0868072
:101B9000012B00F0CE800021204601F0DDFA00216B
:101BA000204601F0CFFA63681B6813B10621204676
:101BB0009847062384F8343070BD204698470028A3
:101BC000CED094F84B2094F84A3043EA0223E26BDB
:101BD0009A4288BFE36394F94430E56B002B4FF0E1
:101BE000200380F2F780002D00F0E680092284F8BF
:101BF000342083F311880021D4E90E232046FFF717
:101C00005FFF002383F31188D6E7B3F5817F00F0EF
:101C1000AB80B3F5407F48D0B3F5807FBBD194F85B
:101C20004630012BB7D1B4F84C3023F00203C4E99D
:101C30000E55A4F84C302564C3E740F2016293428C
:101C40001DD8B3F5C06F3AD2B3F5A06FA3D1B4F8E5
:101C50004430B3F5A06F0ED194F8463084F84E307E
:101C6000204600F05DFF63681B6813B10121204628
:101C70009847032323700023C4E90E3313E0B3F520
:101C8000106F32D040F60242934252D0B3F5006F4B
:101C900081D104F14F03A363012324E004F14C023A
:101CA000A2630222E26323648BE794F84630012B9F
:101CB0007FF471AFB4F84C3043F00203B7E794F807
:101CC0004920616894F848304E6894F8471043EA18
:101CD0000223204694F84620B04700283FF45BAF2B
:101CE0004368A3630368E363A5E72378042B10D15B
:101CF000202383F311882046FFF7C2FE85F3118865
:101D0000636884F84F501B68032121700BB1204693
:101D1000984794F84630002BADD084F84F30042318
:101D2000237063681B68002BA5D0022120469847CA
:101D3000A1E7354BA3630223E3630023B3E794F8E1
:101D400048301D0603F00F0120460AD500F09EFF23
:101D5000012804D002287FF41EAF2C4BEAE72C4B5D
:101D6000E8E700F085FFF3E794F84630002B7FF4B6
:101D700012AF94F8483013F00F013FF47CAF1A060D
:101D8000204602D501F0FCF975E701F0EFF972E7A2
:101D900094F84630002B7FF4FEAE94F8483013F0F0
:101DA0000F013FF468AF1B06204602D501F0D4F9BD
:101DB00061E701F0C7F95EE7142284F8342083F369
:101DC00011882B462A4629462046FFF767FE85F3F1
:101DD0001188F1E65DB1152284F8342083F311886F
:101DE0000021D4E90E232046FFF758FE09E70B2215
:101DF00084F8342083F311882B462A46294620464E
:101E0000FFF75EFEE3E700BF743C00086C3C00088F
:101E1000703C000838B590F834300446152B39D89A
:101E2000DFE803F03E38383838383E38380B293987
:101E300038383838383838383E3E90F84B1090F8FB
:101E40004A20C36B42EA0122934214D2C268128A2A
:101E5000B3FBF2F502FB15356DB9202383F311882E
:101E60002B462A462946FFF72BFE85F311880A23C5
:101E700084F834300EE0142384F83430202383F3C4
:101E8000118800231A4619462046FFF707FE002353
:101E900083F3118838BD036C03B198470023E7E74B
:101EA000002101F059F90021204601F04BF9636847
:101EB0001B6813B10621204698470623D8E7000087
:101EC00090F83420152A38B5044617D801239340DA
:101ED00040F6416213421ED113F480150FD19B02CC
:101EE0000CD50B2380F83430202383F311882B4644
:101EF0002A462946FFF7E4FD85F3118838BDC368FB
:101F00009B695B68002BF9D1036C03B198470023F0
:101F100084F83430F2E7002101F01EF90021204658
:101F200001F010F963681B6813B106212046984739
:101F30000623EDE7024B0022C3E900339A607047A5
:101F400054370020002303748268054B1B6899688E
:101F50009142FBD25A68036042601060586070473B
:101F60005437002008B5202383F31188037C032B0A
:101F700005D0042B0DD02BB983F3118808BD43691C
:101F800000221A604FF0FF334361FFF7DBFF0023AD
:101F9000F2E7D0E900231A6002685360F2E700001C
:101FA000002303748268054B1B6899689142FBD833
:101FB0005A680360426010605860704754370020D0
:101FC000054B19690874186802681A605360186133
:101FD00001230374FEF798B95437002030B54B1C29
:101FE00087B005460A4C10D023690A4A01A800F0C0
:101FF000D3F82846FFF7E4FF049B13B101A800F0D3
:1020000007F92369586907B030BDFFF7D9FFF8E732
:1020100054370020651F000838B50C4D41612B690D
:1020200081689A689142044603D8BDE83840FFF7BA
:1020300089BF1846FFF786FF01232C6101462374F0
:102040002046BDE83840FEF75FB900BF5437002096
:10205000044B1A681B6990689B68984294BF0020E3
:10206000012070475437002010B5084C23682069C0
:102070001A6822605460012223611A74FFF790FFEE
:1020800001462069BDE81040FEF73EB954370020F4
:10209000FFF7EABF82600222028270478368A3F1E1
:1020A0007C0243F80C2C026943F83C2C426943F84B
:1020B000382C074A43F81C2CC26843F8102C022223
:1020C00003F8082C002203F8072CA3F1180070472E
:1020D0002103000810B5202383F31188FFF7DEFFEA
:1020E00000210446FFF798FF002383F31188204660
:1020F00010BD0000024B1B6958610F20FFF760BF45
:1021000054370020202383F31188FFF7F3BF00002A
:1021100008B50146202383F311880820FFF75EFFEE
:10212000002383F3118808BD49B1064B42681B693F
:1021300018605A60136043600420FFF74FBF4FF0F0
:10214000FF307047543700200368984206D01A6861
:102150000260506059611846FFF7F4BE70470000F6
:1021600038B504460D462068844200D138BD036866
:1021700023605C604561FFF7E5FEF4E7054B03F182
:102180001402C3E905224FF0FF310022C3E9071210
:10219000704700BF54370020F8B5C0E903231A4A3E
:1021A0001A4B06461046022950F8145F5B6A38BF86
:1021B0000221854217460AD11362C2E90566581802
:1021C000C6E90055B160BDE8F84001F0AFB9106A4A
:1021D0001B1A5C18AB6802D3E41A2D6804E0A34212
:1021E00002D9204401F0B2F9AB68A342F4D36B6882
:1021F000736035601E606E60B460AB681C1B4FF08E
:10220000FF33AC60FB61F8BD54370020000C004088
:1022100010B41A4C234653F8141F814210D0D0E951
:1022200000210A60026851609A424FF00001C160CB
:1022300003D0936881680B4493605DF8044B70474A
:102240000A68626100209A425360C86003D15DF859
:10225000044B01F075B99368886803449360084A99
:10226000206A526A121A9342E7D9991A012998BF33
:10227000931C18445DF8044B01F068B954370020F2
:10228000000C004000207047FEE70000704700008F
:102290004FF0FF3070470000022906D0032906D016
:1022A0000129064818BF0020704705487047032AD7
:1022B0009ABF044800EBC20000207047443D00086C
:1022C000F83C00080824002070B59AB001AD06461D
:1022D00008462946144600F095F82846FEF7DAFD30
:1022E000C0B2431C5B00C6E9003423700323637053
:1022F000002302341946DAB2904204F1020401D8F4
:102300001AB070BDEA5C04F8022C04F8011C013319
:10231000F1E7000008B5202383F311880348FFF795
:10232000F7FA002383F3118808BD00BF943700201B
:1023300010B50446052916D8DFE801F01615031676
:10234000161D202383F311880E4A0121FFF77EFB1F
:1023500020460D4A0221FFF779FB0C48FFF7A4FA4B
:10236000002383F3118810BD202383F311880748CD
:10237000FFF770FAF4E7202383F311880348FFF78F
:1023800087FAEDE7783C00089C3C00089437002071
:1023900038B50C4D0C4C0D492A4604F10800FFF7E6
:1023A00093FF05F1CA0204F110000949FFF78CFF01
:1023B00005F5CA7204F118000649BDE83840FFF778
:1023C00083BF00BF5C3C002008240020C83C0008FC
:1023D000D23C0008DD3C000870B5044608460D46B6
:1023E000FEF758FDC6B22046013403780BB91846F3
:1023F00070BD32462946FEF737FD0028F3D1012093
:10240000F6E700002DE9F84F05460C46FEF742FDC1
:102410002949C6B22846FFF7DFFF08B1023EF6B2EF
:1024200026492846FFF7D8FF08B11036F6B2632ECA
:102430000DD8DFF88490DFF884A0214FDFF888B052
:10244000DFF888802E7846B92670BDE8F88F2946D7
:102450002046BDE8F84F01F08FBB252E28D107227A
:1024600049462846FEF700FD40B9D8F80030236001
:1024700098F80430237107350534E3E70822514604
:102480002846FEF7F1FC98B90E4BA21C19780909F1
:102490000232C95D02F8041C13F8011B01F00F01A0
:1024A0005B45C95D02F8031CF0D118340835C9E753
:1024B000267001350134C5E7643D0008DD3C0008A5
:1024C000723D0008107AFF1F1C7AFF1F6C3D000848
:1024D000BFF34F8F024AD368DB03FCD4704700BFC1
:1024E000003C024008B5094B1B7873B9FFF7F0FFB9
:1024F000074B1A69002ABFBF064A5A6002F18832A8
:102500005A601A6822F480621A6008BDBA3E002040
:10251000003C02402301674508B50B4B1B7893B97B
:10252000FFF7D6FF094B1A6942F000421A611A6898
:1025300042F480521A601A6822F480521A601A68B3
:1025400042F480621A6008BDBA3E0020003C02409E
:10255000172870B513D80B4A0B4C137863B90B4E80
:102560004FF0006144F8231056F823500133182B24
:102570002944F7D10123137054F8200070BD0020C6
:10258000FCE700BF1C3F0020BC3E0020843D00084B
:10259000014B53F820007047843D00081820704715
:1025A000172810B5044601D9002010BDFFF7D0FF51
:1025B000064B53F824301844C21A0BB90120F4E733
:1025C00012680132F0D1043BF6E700BF843D0008F9
:1025D000172810B5044629D8FFF77AFFFFF782FFC6
:1025E0001349F323CB600C23B0FBF3F203FB12007F
:1025F000D30143EAC003DBB243F4007343F00203A8
:102600000B610B6943F480330B61FFF761FF2046D8
:10261000FFF79EFF074B53F8241000F0D9F8FFF79F
:102620007BFF2046BDE81040FFF7BABF002010BD79
:10263000003C0240843D0008F8B512F00103164644
:102640003DD18218B2F1026F58D22D4B1B6813F0A6
:10265000010353D02B4CFFF745FFF323E360FFF753
:1026600037FF40F20127032E01D9830710D0254DF3
:102670000F46401A3144CB1B012B00EB07042B699A
:1026800022D823F001032B61FFF746FF0120F8BD9C
:10269000236923F44073236123693B43236151F889
:1026A000045B0560BFF34F8FFFF712FF03689D4285
:1026B00007D0236923F001032361FFF72DFF0020DA
:1026C000E5E7043E0430CEE723F440732B612B6929
:1026D00043F4807343F001032B613B882380BFF3F5
:1026E0004F8FFFF7F5FE248837F8023BA4B2A342D0
:1026F000C1D02B6923F001032B61DEE71846C6E742
:1027000000380240003C0240084908B50B7828B167
:102710001BB9FFF7E7FE01230B7008BD002BFCD0AF
:10272000BDE808400870FFF7F7BE00BFBA3E0020C2
:1027300010B50244064B0439D2B2904200D110BD0C
:10274000441C00B253F8200041F8040FE0B2F4E753
:1027500050280040104B30B51C6F240407D41C6F68
:1027600044F400741C671C6F44F400441C670B4C59
:10277000236843F4807323600244094B0439D2B2C6
:10278000904200D130BD441C00B251F8045F43F8C0
:102790002050E0B2F4E700BF003802400070004073
:1027A0005028004007B5012201A90020FFF7C0FF13
:1027B000019803B05DF804FB07B502A9012241F8B6
:1027C000040D0020FFF7C6FF03B05DF804FB000016
:1027D00070470000034B1B689B0042BF024B012265
:1027E0001A707047743802401D3F0020014B187862
:1027F000704700BF1D3F0020064A536823F00103C5
:102800005360EFF30983683383F30988002383F36C
:102810001188704730EF00E010B5202383F3118852
:10282000104B5B6813F4006318D0F1EE103AEFF32D
:1028300009844FF0807344F84C3C0B4BDB6844F840
:10284000083CA4F1680383F30988FFF701FC18B181
:10285000064B44F8503C10BD054BFAE783F3118852
:10286000F9E700BF00ED00E030EF00E031030008C1
:102870003403000870470000FEE70000084A094BD7
:1028800009498B4204D3094A0021934205D370477A
:1028900052F8040F43F8040BF3E743F8041BF4E782
:1028A0005C3F0008904100209041002090410020B2
:1028B00030B5D0E9154300229D6811464FF0FF3036
:1028C00004EB421301329542C3F80019C3F8101902
:1028D000C3F80809C3F8001BC3F8101BC3F8080BA2
:1028E000EED24FF00113C4F81C3830BD890141F01D
:1028F0002001016103699B06FCD4122000F0B2BEE6
:102900001F4B03EB80022DE9F047D2F80CC05D6D40
:10291000DCF81420461CD2F800E005EB063605EB87
:102920004018516871450BD3D5F83428012303FAB8
:1029300000F022EA0000C5F834081846BDE8F08728
:10294000BCF81040AEEB0103A34228BF2346D8F8E1
:102950001849A4B2B3EB840F10D894681F46A4F1B1
:10296000040959F804AFC6F800A0042F01D9043FA8
:10297000F7E71C440B4494605360D2E70020DDE786
:10298000203F002010B5054C2046FFF741F84FF0DE
:10299000A0436365024BA36510BD00BF203F00202C
:1029A000083E00080378012B70B5054650D12A4B2C
:1029B000446D98421BD1294B5A6B42F080025A63F6
:1029C0005A6D42F080025A655A6D5A6942F080028F
:1029D0005A615A6922F080025A610E2143205B69D4
:1029E000FEF786FC1E4BE3601E4BC4F80038002344
:1029F000C4F8003EC02323606E6D4FF45023A363E0
:102A00003369002BFCDA012333610C2000F02AFE2D
:102A10003369DB07FCD4122000F024FE3369002B5D
:102A2000FCDA0026A6602846FFF742FF6B68C4F870
:102A30001068DB68C4F81468C4F81C684BB90A4B0A
:102A4000A3614FF0FF336361A36843F00103A36008
:102A500070BD064BF4E700BF203F00200038024065
:102A60004014004003002002003C30C0083C30C04D
:102A7000F8B5446D054600212046FFF737FFA96DE4
:102A800000234FF001128F68C4F834384FF000660D
:102A9000C4F81C284FF0FF3004EB431201339F426F
:102AA000C2F80069C2F8006BC2F80809C2F8080B46
:102AB000F2D20B686A6DEB656362102313611669CD
:102AC00016F01006FBD1122000F0CCFDD4F800382F
:102AD00023F4FE63C4F80038A36943F4402343F0B1
:102AE0001003A3610923C4F81038C4F814380A4B42
:102AF000EB604FF0C043C4F8103B084BC4F8003BF8
:102B0000C4F81069C4F80039EB6D03F1100243F406
:102B10008013EA65A362F8BDE43D00084080001020
:102B2000426D90F84E10D2F8003823F4FE6343EA69
:102B30000113C2F8003870472DE9F8430EB200EBDC
:102B400086090D46D9F80C20176807F00303022BFD
:102B500055D0032B55D03E4F3E49012B18BF0F4691
:102B6000446D690163184FF0000CC3F810CB05F1F8
:102B700010034FF0010C0CFA03FC9369002B42D0B8
:102B8000B2F812E005F158035B014EEA070E44F873
:102B900003E0D4F81C3843EA0C032144C4F81C3881
:102BA0000023C1F8103953694FF00108691E08FA73
:102BB00005F8ABB3138A928B9B08012A88BF534355
:102BC000C26D9E1842EA034301F1400204EB820207
:102BD000C665294653602046FFF788FED9F80C30B9
:102BE0001B8A43EA855348356D011F436751D4F86A
:102BF0001C3843EA0803C4F81C38BDE8F883164FB4
:102C0000AEE7164FACE704EB461EDEF8003B23F4BC
:102C10000043CEF8003BD4F81C3823EA0C03BCE791
:102C200005F13F0304EB83030D4A5A6004EB46169B
:102C300029462046FFF75AFED6F8003923F4004310
:102C4000C6F80039D4F81C3823EA0803D3E700BFDC
:102C500000800410008000100080081000800C101C
:102C600000040002826D1268C265FFF721BE0000F9
:102C70005831436D49015B5813F4004004D013F4FC
:102C8000001F14BF01200220704700004831436D2F
:102C900049015B5813F4004004D013F4001F14BF23
:102CA000012002207047000000EB8101CB68196A07
:102CB0000B6813604B6853607047000000EB8103A2
:102CC00030B5DD68AA691368D36019B9402B84BF99
:102CD000402313606B8A1468426D1C44013CB4FBB2
:102CE000F3F46343033323F0030302EB411043EA9D
:102CF000C44343F0C043C0F8103B2B6803F0030308
:102D0000012B09B20ED1D2F8083802EB411013F4AE
:102D1000807FD0F8003B14BF43F0805343F0005352
:102D2000C0F8003B02EB4112D2F8003B43F00443F1
:102D3000C2F8003B30BD00002DE9F041244D6E6D1E
:102D400006EB40130446D3F8087BC3F8087B38072A
:102D50000AD5D6F81438190706D505EB84032146A1
:102D6000DB6828465B689847FA071FD5D6F8143801
:102D7000DB071BD505EB8403D968CCB98B69488A7E
:102D80005E68B6FBF0F200FB12628AB91868DA6876
:102D900090420DD2121AC3E90024202383F3118834
:102DA0000B482146FFF78AFF84F31188BDE8F081C4
:102DB000012303FA04F26B8923EA02036B81CB68D7
:102DC000002BF3D021460248BDE8F041184700BF70
:102DD000203F002000EB810370B5DD68436D6C6916
:102DE0002668E6604A0156BB1A444FF40020C2F838
:102DF00010092A6802F00302012A0AB20ED1D3F8A0
:102E0000080803EB421410F4807FD4F8000914BFC3
:102E100040F0805040F00050C4F8000903EB42122B
:102E2000D2F8000940F00440C2F80009D3F8340891
:102E3000012202FA01F10143C3F8341870BD19B937
:102E4000402E84BF4020206020682E8A841940F0E4
:102E50000050013C1A44B4FBF6F440EAC440C6E713
:102E6000F8B504461E48456D05EB4413D3F80869D0
:102E7000C3F80869F10717D5D5F81038DA0713D564
:102E800000EB8403D9684B691F68DA68974218D24F
:102E9000D21B00271A605F60202383F3118821462C
:102EA000FFF798FF87F31188330617D5D5F8342834
:102EB0000123A340134211D02046BDE8F840FFF79C
:102EC0001FBD012303FA04F2038923EA02030381ED
:102ED0008B68002BE8D021469847E5E7F8BD00BF96
:102EE000203F002096482DE9F84F456D6E69AB698B
:102EF0001E4016F4805F6E61044605D0FEF7F2FDB9
:102F0000BDE8F84FFFF788BC002E12DAD5F8003E76
:102F10008B489B071EBFD5F8003E23F00303C5F87E
:102F2000003ED5F8043823F00103C5F80438FEF755
:102F3000FDFD370502D58248FEF7ECFDB0040CD547
:102F4000D5F8083813F0060FEB6823F470530CBF64
:102F500043F4105343F4A053EB60310704D5636886
:102F6000DB680BB176489847F2025AD4B3020CD50D
:102F7000D4F85480DFF8C8A100274FF00109A36DF1
:102F80009B68F9B28B4280F08780F70619D5616D96
:102F90000A6AC2F30A1702F00F0302F4F012B2F544
:102FA000802F00F0A180B2F5402F0AD104EB8303FB
:102FB00001F58051DB68186A00231A469F4240F0F1
:102FC00087803003D5F8184813D5E10302D50020D7
:102FD000FFF7B2FEA20302D50120FFF7ADFE6303A7
:102FE00002D50220FFF7A8FE270302D50320FFF732
:102FF000A3FE750384D5E00702D50020FFF730FF5C
:10300000A10702D50120FFF72BFF620702D502209E
:10301000FFF726FF23077FF573AF0320FFF720FF9D
:103020006EE7D4F85480DFF818A100274FF00109AB
:10303000A36D9B685FFA87FB5B4597D308EB4B1347
:10304000D3F8002902F44022B2F5802F22D1D3F820
:103050000029002A1EDAD3F8002942F09042C3F872
:103060000029D3F80029002AFBDB5946606DFFF7E1
:103070003DFC228909FA0BF322EA0303238104EBC6
:103080008B03DB689B6813B15946504698475846F6
:10309000FFF736FC0137CBE708EB4112D2F8003BD3
:1030A00003F44023B3F5802F10D1D2F8003B002B5E
:1030B0000CDA628909FA01F322EA0303638104EB63
:1030C0008103DB68DB680BB150469847013756E750
:1030D0009C0708BF0A68072B98BF027003F1010321
:1030E0009CBF120A013069E7023304EB830201F549
:1030F000805152689069D0F808E0D0E90020A2EB36
:10310000000C0022104697420AD104EB8304636846
:103110009B699A683A449A605A6817445F6050E71E
:1031200012F0030F08BF0868944588BF8EF80000AE
:1031300002F1010284BF000A0EF1010EE3E700BFB5
:10314000203F0020436D03EB4111D1F8003B43F4D5
:103150000013C1F8003B7047436D03EB4111D1F8F8
:10316000003943F40013C1F800397047436D03EB95
:103170004111D1F8003B23F40013C1F8003B704724
:10318000436D03EB4111D1F8003923F40013C1F86A
:103190000039704730B5039C0172043304FB0325EA
:1031A000C0E90653049B03630021059BC160C0E98D
:1031B0000000C0E90422C0E90842C0E90A114363E3
:1031C00030BD0000416A0022C0E90411C260C0E9BC
:1031D0000A226FF00101FEF7C3BF0000D0E90432FC
:1031E000934201D1C2680AB9181D70470020704788
:1031F00003691960C2680132C260C26913448269FE
:103200000361934224BF436A03610021FEF79CBF20
:1032100038B504460D46E3683BB16269131D126878
:10322000A3621344E362002007E0237A33B92946FE
:103230002046FEF779FF0028EDDA38BD6FF0010077
:10324000FBE70000C368C269013BC36043691344E4
:1032500082694361934224BF436A436100238362CE
:10326000036B03B11847704770B52023044683F3FE
:103270001188866A3EB9FFF7CBFF054618B186F381
:103280001188284670BDA36AE26A13F8015BA36245
:10329000934202D32046FFF7D5FF002383F3118822
:1032A000EFE700002DE9F84F04460E469046994698
:1032B000202787F311880025AA46D4F828B0BBF14F
:1032C000000F09D149462046FFF7A2FF20B18BF33A
:1032D00011882846BDE8F88FD4E90A13A8EB050B3E
:1032E0005B1A9B4528BF9B46BBF1400F1BD9334659
:1032F00001F1400251F8040B43F8040B9142F9D15B
:10330000A36A40334036A3624035D4E90A239A4287
:1033100002D32046FFF796FF8AF311884545D8D29D
:1033200087F31188C9E730465A46FDF793FDA36A33
:103330005B445E44A3625D44E7E7000010B5029C75
:103340000172043304FB0321C0E906130023C0E922
:103350000A33039B0363049BC460C0E90000C0E917
:103360000422C0E90842436310BD0000026AC26043
:10337000426AC0E904220022C0E90A226FF001017A
:10338000FEF7EEBED0E904239A4201D1C26822B909
:10339000184650F8043B0B6070470020704700004F
:1033A000C368C2690133C3604369134482694361DE
:1033B000934224BF436A43610021FEF7C5BE00006B
:1033C00038B504460D46E3683BB123691A1DA26275
:1033D000E2691344E362002007E0237A33B9294607
:1033E0002046FEF7A1FE0028EDDA38BD6FF001009F
:1033F000FBE7000003691960C268013AC260C26954
:10340000134482690361934224BF436A036100232A
:103410008362036B03B118477047000070B5202327
:1034200004460E4683F31188856A35B91146FFF7C5
:10343000C7FF10B185F3118870BDA36A1E70A36A1F
:10344000E26A01339342A36204D3E169204604395E
:10345000FFF7D0FF002080F31188EDE72DE9F84F4A
:1034600004460D4691469A464FF0200888F311888D
:103470000026B346A76A4FB951462046FFF7A0FF82
:1034800020B187F311883046BDE8F88FD4E90A07E8
:10349000A9EB06033F1A9F4228BF1F46402F1BD9A6
:1034A00005F1400355F8042B40F8042B9D42F9D157
:1034B000A36A4033A3624036D4E90A239A4204D374
:1034C000E16920460439FFF795FF8BF311884E45DB
:1034D000D9D288F31188CDE729463A46FDF7BAFCE0
:1034E000A36A3B443D44A3623E44E5E7D0E904239C
:1034F0009A4217D1C3689BB1836A8BB1043B9B1A74
:103500000ED01360C368013BC360C3691A4483696A
:1035100002619A4224BF436A03610023836201234C
:10352000184670470023FBE700F034B9034B002234
:1035300058631A610222DA60704700BF000C004035
:10354000014B0022DA607047000C0040014B5863C9
:10355000704700BF000C0040FEE7000010B5174C9C
:10356000FEF7E8FCFEF70AFE802215492046FEF72A
:1035700091FD012344F8180C0374124B124AD968C8
:1035800021F4E0610904090C0A431049DA60CA68B1
:1035900042F08072CA600E490A6842F001020A6075
:1035A0001022DA77202283F82220002383F3118867
:1035B00062B60848BDE81040FEF78CBD7C3700209D
:1035C000143E000800ED00E00003FA05F0ED00E015
:1035D000001000E01C3E00082DE9F84F1F4CDFF8FA
:1035E0008090656904F114074FF00008D9F8243081
:1035F000266AAA689E1B96421DD34FF0200AAA682D
:10360000236AD5F80CB0134423622B68BB425F6079
:10361000A6EB02066361C5F80C8001D1FFF790FFAD
:1036200088F311882869D8478AF311886569AB68DF
:103630009E42E4D2DAE76269BA420CD09168236212
:103640008E1B9660A86802282CBF1818981CBDE82D
:10365000F84FFFF77BBFBDE8F88F00BF543700205D
:10366000000C0040034B59685A68521A9042FBD82C
:10367000704700BF001000E04B6843608B688360B8
:10368000CB68C3600B6943614B6903628B6943621A
:103690000B6803607047000008B5224B22481A6986
:1036A00040F2FF110A431A611A6922F4FF7222F0F4
:1036B00001021A611A691A6B0A431A631A6D0A43E6
:1036C0001A651A4A1B6D1146FFF7D6FF184802F11A
:1036D0001C01FFF7D1FF174802F13801FFF7CCFFBB
:1036E000154802F15401FFF7C7FF144802F17001B9
:1036F000FFF7C2FF124802F18C01FFF7BDFF11482E
:1037000002F1A801FFF7B8FF0F4802F1C401FFF76B
:10371000B3FF0E4802F1E001FFF7AEFFBDE808403D
:1037200000F0A4B800380240000002403C3E00080F
:103730000004024000080240000C02400010024059
:103740000014024000180240001C02400020024009
:1037500008B500F0FFF9FFF701FFFFF73BF8BDE800
:103760000840FEF715BE000070470000084B1A69BC
:10377000920710B508D500241C61202383F311881B
:10378000FFF72AFF84F31188BDE81040FFF744B823
:10379000000C0040104B1A6C42F008021A641A6EBA
:1037A00042F008021A660D4A1B6E936843F0080344
:1037B00093600B4B53229A624FF0FF32DA62002281
:1037C0009A615A63DA605A6001225A6108211A60CC
:1037D0003220FDF78DBD00BF00380240002004E01C
:1037E000000C00401F4B1A696FEAC2526FEAD252B6
:1037F0001A611A69C2F308021A614FF0FF301A69A0
:103800005A69586100215A6959615A691A6A62F005
:1038100080521A621A6A02F080521A621A6A5A6A4E
:1038200058625A6A59625A6A1A6C42F080521A6493
:103830001A6E42F080521A661A6E0B4A106840F4F3
:1038400080701060186F00F44070B0F5007F1EBFEC
:103850004FF4803018671967536823F4007353607E
:1038600000F058B90038024000700040324B4FF071
:1038700080521A64314A4FF4404111601A6842F094
:1038800001021A601A689207FCD59A6822F00302B6
:103890009A60294B19469A6812F00C02FBD11868FD
:1038A00000F0F90018609A601A6842F480321A60D9
:1038B0000B689B03FCD54B6F43F001034B671E4B1A
:1038C0005A6F9007FCD51E4A5A601A6842F08072FF
:1038D0001A601A4A53685904FCD5174B1A689201AA
:1038E000FCD5184A9A600322C3F88C20164B1A683C
:1038F000164B9A42164B1BD1164A1168164A914232
:1039000016D140F205121A600B4B9A6842F002027F
:103910009A609A6802F00C02082AFAD15A6C42F4B2
:1039200080425A645A6E42F480425A665B6E704717
:1039300040F20572E7E700BF003802400070004027
:103940001854400700948838002004E011640020D7
:10395000003C024000ED00E041C20F41084A08B5BA
:10396000516913680B4003F00103536123B1054A09
:1039700013680BB150689847BDE80840FEF74CBF8C
:10398000003C01409C290020084A08B55169136891
:103990000B4003F00203536123B1054A93680BB156
:1039A000D0689847BDE80840FEF736BF003C0140AC
:1039B0009C290020084A08B5516913680B4003F0A0
:1039C0000403536123B1054A13690BB15069984749
:1039D000BDE80840FEF720BF003C01409C290020C4
:1039E000084A08B5516913680B4003F00803536196
:1039F00023B1054A93690BB1D0699847BDE80840E7
:103A0000FEF70ABF003C01409C290020084A08B587
:103A1000516913680B4003F01003536123B1054A49
:103A2000136A0BB1506A9847BDE80840FEF7F4BE30
:103A3000003C01409C290020174B10B55A691C68B6
:103A4000144004F478725A61A30604D5134A936AA9
:103A50000BB1D06A9847600604D5104A136B0BB1BE
:103A6000506B9847210604D50C4A936B0BB1D06B71
:103A70009847E20504D5094A136C0BB1506C98477E
:103A8000A30504D5054A936C0BB1D06C9847BDE8EB
:103A90001040FEF7C1BE00BF003C01409C29002041
:103AA0001A4B10B55A691C68144004F47C425A61E0
:103AB000620504D5164A136D0BB1506D9847230566
:103AC00004D5134A936D0BB1D06D9847E00404D52B
:103AD0000F4A136E0BB1506E9847A10404D50C4ADF
:103AE000936E0BB1D06E9847620404D5084A136FE9
:103AF0000BB1506F9847230404D5054A936F0BB15F
:103B0000D06F9847BDE81040FEF786BE003C0140EC
:103B10009C290020062108B50846FDF7E9FB06218F
:103B20000720FDF7E5FB06210820FDF7E1FB062154
:103B30000920FDF7DDFB06210A20FDF7D9FB062150
:103B40001720FDF7D5FB06212820BDE80840FDF72A
:103B5000CFBB000008B5FFF745FEFDF749FAFDF7BA
:103B60006DFDFDF753FFFDF72DFEFFF7FDFDBDE8F1
:103B70000840FFF7D9BC0000034611F8012B03F8F9
:103B8000012B002AF9D170471210121312110000F4
:103B900053544D3332463F3F3F0000000120330075
:103BA0000010410101105A010310590107103101A1
:103BB00000000000903B00083F00000013040000DC
:103BC000E83B00083F00000019040000F23B000839
:103BD0003F00000021040000FC3B00083F00000003
:103BE000943700201C2A002053544D333246343081
:103BF000780053544D3332463432780053544D33A9
:103C00003246343436585800009600000000000058
:103C100000000000000000000000000000000000A4
:103C200005160008F11500082D16000819160008E1
:103C30002516000811160008FD150008E9150008F2
:103C400039160008000000003D1700082917000879
:103C500065170008511700085D170008491700088C
:103C60003517000821170008C117000800000000E0
:103C70000100000000000000020000000000000041
:103C80005D190008C5190008400040002C3C0020C8
:103C90003C3C002002000000000000000300000087
:103CA00000000000091A00080000000010000000D9
:103CB0004C3C00200000000001000000000000005B
:103CC000203F0020010102004172647550696C6F51
:103CD000740025424F415244252D424C0025534546
:103CE0005249414C25000000312300089922000868
:103CF000D51800081523000843000000003D000807
:103D000009024300020100C032090400000102025E
:103D10000100052400100105240100010424020211
:103D20000524060001070582030800FF09040100BD
:103D3000020A000000070501024000000705810299
:103D400040000000120000004C3D0008120110016C
:103D500002000040830440570002010203010000FA
:103D60000403090425424F4152442500666D7576CF
:103D700033003031323334353637383941424344F9
:103D800045460000004000000040000000400000E8
:103D900000400000000001000000020000000200DE
:103DA000000002000000020000000200000002000B
:103DB0000000020000400000004000000040000041
:103DC00000400000000001000000020000000200AE
:103DD00000000200000002000000020000000200DB
:103DE0000000020000000000411B0008151E000832
:103DF000C11E000840004000803F0020803F00209E
:103E000001000000903F0020800000004001000001
:103E1000030000006D61696E00000000343E000880
:103E2000983F002090410020010000005935000813
:103E30000000000069646C65000000000000802A3A
:103E400000020000AAAAAAAA00000000FFFF0000CA
:103E50000000000000A00A000000000000000000B8
:103E6000AAAAAAAA00000000FFFF000000000000AC
:103E7000000000001400005400000000AAAAAAAA32
:103E800014000054FFFF00000000000000000000CC
:103E900080699A0100000000AAAA8AAA405555012B
:103EA000FFFF0000007070077770000000810201C2
:103EB00000000000AAAAAAAA00410100FFFF00001A
:103EC000000000800800000000000000000000006A
:103ED000AAAAAAAA00000000FFFF0000000000003C
:103EE000000000000000000000000000AAAAAAAA2A
:103EF00000000000FFFF00000000000000000000C4
:103F000000000000000000000A00000000000000A7
:103F1000030000000000000000000000000000009E
:103F20000000000000000000000000000000000091
:103F30000000000000000000FF00960000000008E4
:103F400004000000603D00080000000000000000C8
:103F50000000000000000000000000000000000061
:00000001FF
